:100000000C9434000C9451000C9451000C94510049
:100010000C9451000C9451000C9451000C9451001C
:100020000C9451000C9451000C9451000C9451000C
:100030000C9451000C9451000C9451000C945100FC
:100040000C9451000C9451000C9476010C944A01CC
:100050000C9451000C9451000C9451000C945100DC
:100060000C9451000C94510011241FBECFEFD8E026
:10007000DEBFCDBF11E0A0E0B1E0E0E1FDE002C0F5
:1000800005900D92AC31B107D9F721E0ACE1B1E0B8
:1000900001C01D92AE3AB207E1F70E94B0030C9482
:1000A00086060C9400001092C50087E68093C40079
:1000B0001092C00088E98093C10086E08093C2005E
:1000C00008958823E1F090915C01FB019B012F5F73
:1000D0003F4F4FEF480F420F532F511D292F30E054
:1000E0009191D901A45EBE4F9C932F5F3F4F2F7318
:1000F0003327922FE417F50789F720935C0190913D
:10010000C20095FD05C09091C10090629093C1001E
:100110000895CF93582F882341F140919E01C0E468
:10012000C40F90919F01FB0180E00FC0292F30E0A8
:10013000D901A25ABE4F9C9191932F5F3F4F2F73CD
:100140003327922F8F5F581761F0242F291B4917EF
:1001500010F42C2F291B2111E9CF90939F01CF91EF
:10016000089520939F01CF91089580E0F8CF1F93C9
:10017000CF93DF93D82F882371F1C0919E0110E4B3
:100180001C0F90919F01FB0180E011C0292F30E0EE
:10019000D901A25ABE4F5C9151932F5F3F4F2F73ED
:1001A0003327922F8F5F541781F0D81771F02C2FBF
:1001B000291BC91710F4212F291B2111E7CF909378
:1001C0009F01DF91CF911F91089520939F01DF91AF
:1001D000CF911F91089580E0FACFCF93DF931F92C4
:1001E000CDB7DEB78983BE016F5F7F4F81E00E948C
:1001F00061000F90DF91CF910895FC0101900020E4
:10020000E9F73197BC012E2F281B822F0C94610037
:1002100080919E0190919F01891708F4805C891B51
:10022000089560919F0130919E0190E0482F880FC2
:10023000550B08C09F5FF0E0E25AFE4F2081241763
:10024000150631F0E62FE90FEF733E13F3CF90E080
:10025000892F0895CF93DF931F92CDB7DEB7198210
:10026000BE016F5F7F4F81E00E94890089810F90FE
:10027000DF91CF9108950C948900CF93DF93EB0128
:100280004AE00E94B700C80FD11D18828F5FDF912E
:10029000CF9108951F920F920FB60F9211242F93B2
:1002A0008F939F93EF93FF9380915D0190915C01F9
:1002B0009817B1F090E0FC01E45EFE4F208120939E
:1002C000C60001968F73992780935D01FF91EF918E
:1002D0009F918F912F910F900FBE0F901F901895A7
:1002E0008091C1008F7D8093C100F0CF1F920F924B
:1002F0000FB60F9211242F938F939F93AF93BF93B9
:10030000EF93FF93EEE9F1E0808190E02091C60049
:10031000DC01A25ABE4F2C9301968F7399278083DC
:10032000FF91EF91BF91AF919F918F912F910F907E
:100330000FBE0F901F901895EAE7F0E0808187606C
:100340008083ACE7B0E08C9180648C93808180687E
:1003500080838081806480838C9180628C930895F7
:1003600080917C00807F80937C0080917A00806403
:1003700080937A0080917A0086FDFCCF809179008D
:100380008093A50180917C008F5F80937C00809199
:100390007A00806480937A0080917A0086FDFCCF99
:1003A000809179008093A60180917C008F5F80937B
:1003B0007C0080917A00806480937A0080917A003A
:1003C00086FDFCCF809179008093A70180917C000D
:1003D0008F5F80937C0080917A00806480937A00A4
:1003E00080917A0086FDFCCF809179008093A801EE
:1003F00080917C008F5F80937C0080917A00806484
:1004000080937A0080917A0086FDFCCF80917900FC
:100410008093A9010895CF93DF9300D000D01F925D
:10042000CDB7DEB7E0EAF1E04083518362837383A6
:1004300084830F900F900F900F900F90DF91CF91CA
:1004400008950E94B00181E02091A5019091A00142
:10045000291708F480E02091A6019091A1012917A5
:10046000B8F092E0892B2091A7019091A201291761
:1004700008F084602091A8019091A301291708F049
:1004800088602091A9019091A401291718F408957A
:1004900090E0E8CF80610895CF93DF9300D000D043
:1004A0001F92CDB7DEB70E9445030E949C0185E0F4
:1004B000E0E0F1E0DE01119601900D928A95E1F7FE
:1004C00049815A816B817C818D810E940B020F9042
:1004D0000F900F900F900F90DF91CF910C945300DD
:1004E0000F931F93CF93DF93CDB7DEB7C956D109D2
:1004F0000FB6F894DEBF0FBECDBFA6964FAFA6973E
:10050000A7965FAFA797A8966FAFA897A9967FAF5A
:10051000A9971F928F93A9968FADA9971F928F933A
:10052000A8968FADA8971F928F93A7968FADA79788
:100530001F928F93A6968FADA6971F928F9385E0FB
:1005400091E09F938F938E010F5F1F4F1F930F9327
:100550000E94B603C8010E94FD000FB6F894DEBFEA
:100560000FBECDBFC759DF4F0FB6F894DEBF0FBE29
:10057000CDBFDF91CF911F910F9108950F931F93DE
:10058000CF93DF93CDB7DEB7C456D1090FB6F89439
:10059000DEBF0FBECDBF84FB992790F91F929F93BA
:1005A00083FB992790F91F929F9382FB992790F9DB
:1005B0001F929F9381FB992790F91F929F938170BF
:1005C0001F928F9385E091E09F938F938E010F5F31
:1005D0001F4F1F930F930E94B603C8010E94FD0096
:1005E0000FB6F894DEBF0FBECDBFCC59DF4F0FB6AC
:1005F000F894DEBF0FBECDBFDF91CF911F910F9159
:1006000008950E94210284FF16C085E191E00E94B6
:10061000FD0002C00E9467030E94210284FDFACF00
:100620000E94210282FD06C00E9498030E942102BE
:1006300082FFFACF08950E94210280FF16C088E150
:1006400091E00E94FD0002C00E9467030E94210207
:1006500080FDFACF0E94210282FD06C00E94A40301
:100660000E94210282FFFACF08950E9421028E701B
:1006700009F408950E94210281FD05C083FF0C94B6
:1006800067030C9488030C947E038AB1806F8AB947
:1006900084B5836A84BD85B5856085BD08958091E4
:1006A000AC0187BD8091AA0188BD8091AD018823EE
:1006B00039F05F9A8091AB01811107C05C98089571
:1006C0005F988091AB018823C9F35C9A0895ECEAA6
:1006D000F1E088E780831182EAEAF1E08083118209
:1006E0000C944F03ECEAF1E098E7908381E081837A
:1006F000EAEAF1E0908381830C944F03EAEAF1E0A7
:1007000088E78083118284E58093AC010C944F03C9
:10071000EAEAF1E084E58083118288E78093AC0106
:100720000C944F031092AC011092AA010C944F0349
:10073000ECEAF1E084E680831182EAEAF1E080836A
:1007400081E081830C944F03ECEAF1E084E680833E
:1007500091E09183EAEAF1E0808311820C944F03E7
:100760000E944C0278940E940103FDCFAEE0B0E0FD
:10077000ECEBF3E00C945D060D891E8986E08C831A
:100780001A8309838FEF9FE79E838D83AE01475EB7
:100790005F4F6F89788DCE0101960E94D803EF815B
:1007A000F885E00FF11F10822E96E4E00C94790694
:1007B000ACE0B0E0EEEDF3E00C944F066C017B0191
:1007C0008A01FC0117821682838181FFBEC1CE019E
:1007D00001964C01F6019381F70193FD859193FFFA
:1007E00081917F01882309F4ACC1853239F493FDEE
:1007F000859193FF81917F01853229F4B60190E0C4
:100800000E94C105E7CF512C312C20E02032A0F40A
:100810008B3269F030F4803259F0833269F4206110
:100820002CC08D3239F0803339F4216026C022602B
:10083000246023C0286021C027FD27C030ED380F79
:100840003A3078F426FF06C0FAE05F9E300D11249E
:10085000532E13C08AE0389E300D1124332E2062AF
:100860000CC08E3221F426FD6CC1206406C08C368B
:1008700011F4206802C0883641F4F70193FD859198
:1008800093FF81917F018111C1CF982F9F7D955456
:10089000933028F40C5F1F4F9FE399830DC083367C
:1008A00031F0833771F0833509F05BC022C0F80165
:1008B000808189830E5F1F4F44244394512C54013F
:1008C00015C03801F2E06F0E711CF801A080B180F4
:1008D00026FF03C0652D70E002C06FEF7FEFC501FA
:1008E0002C870E94B6052C0183012C852F77222EA0
:1008F00017C03801F2E06F0E711CF801A080B180C2
:1009000026FF03C0652D70E002C06FEF7FEFC501C9
:100910002C870E94AB052C012C852068222E830198
:1009200023FC1BC0832D90E048165906B0F4B60195
:1009300080E290E00E94C1053A94F4CFF50127FCD3
:10094000859127FE81915F01B60190E00E94C1056B
:1009500031103A94F1E04F1A51084114510471F7E3
:10096000E6C0843611F0893639F5F80127FF07C053
:1009700060817181828193810C5F1F4F08C060810B
:100980007181072E000C880B990B0E5F1F4F2F767D
:10099000722E97FF09C090958095709561957F4F55
:1009A0008F4F9F4F2068722E2AE030E0A4010E94F2
:1009B000F105A82EA81844C0853729F42F7EB22E41
:1009C0002AE030E025C0F22FF97FBF2E8F36C1F02C
:1009D00018F4883579F0B5C0803719F0883721F0E0
:1009E000B0C02F2F2061B22EB4FE0DC08B2D8460BD
:1009F000B82E09C024FF0AC09F2F9660B92E06C0EA
:100A000028E030E005C020E130E002C020E132E023
:100A1000F801B7FE07C060817181828193810C5F0C
:100A20001F4F06C06081718180E090E00E5F1F4F14
:100A3000A4010E94F105A82EA818FB2DFF777F2E98
:100A400076FE0BC0372D3E7FA51450F474FE0AC00D
:100A500072FC08C0372D3E7E05C0BA2C372D03C06E
:100A6000BA2C01C0B52C34FF0DC0FE01EA0DF11DFA
:100A70008081803311F4397E09C032FF06C0B394FF
:100A8000B39404C0832F867809F0B39433FD13C068
:100A900030FF06C0B31498F43A0C532C5B1810C006
:100AA000B31470F4B60180E290E03C870E94C10567
:100AB000B3943C85F5CFB31418F43B1802C05A2CFC
:100AC000312C34FF12C0B60180E390E03C870E94D5
:100AD000C1053C8532FF17C031FD03C088E790E0B7
:100AE00002C088E590E0B6010CC0832F867859F0EB
:100AF00031FF02C08BE201C080E237FD8DE2B6011A
:100B000090E00E94C105A51438F4B60180E390E09E
:100B10000E94C1055A94F7CFAA94F401EA0DF11D81
:100B20008081B60190E00E94C105A110F5CF33206D
:100B300009F450CEB60180E290E00E94C1053A94DB
:100B4000F6CFF6018681978102C08FEF9FEF2C963A
:100B5000E2E10C946B06FC010590615070400110BD
:100B6000D8F7809590958E0F9F1F0895FC016150D6
:100B7000704001900110D8F7809590958E0F9F1FBF
:100B800008950F931F93CF93DF93182F092FEB0135
:100B90008B8181FD03C08FEF9FEF1EC082FF0FC0CE
:100BA0002E813F818C819D812817390774F4E8815B
:100BB000F981CF01019699838883108306C0E88567
:100BC000F985812F0995892B31F78E819F810196B7
:100BD0009F838E83812F902FDF91CF911F910F9153
:100BE0000895FA01AA27283051F1203181F1E894C3
:100BF0006F936E7F6E5F7F4F8F4F9F4FAF4FB1E010
:100C00003ED0B4E03CD0670F781F891F9A1FA11D0A
:100C1000680F791F8A1F911DA11D6A0F711D811D0B
:100C2000911DA11D20D009F468943F912AE0269FD0
:100C300011243019305D3193DEF6CF010895462F2F
:100C40004770405D4193B3E00FD0C9F7F6CF462F10
:100C50004F70405D4A3318F0495D31FD4052419379
:100C600002D0A9F7EACFB4E0A69597958795779536
:100C70006795BA95C9F700976105710508959B01BD
:100C8000AC010A2E06945795479537952795BA9546
:100C9000C9F7620F731F841F951FA01D08952F921F
:100CA0003F924F925F926F927F928F929F92AF92FC
:100CB000BF92CF92DF92EF92FF920F931F93CF9349
:100CC000DF93CDB7DEB7CA1BDB0B0FB6F894DEBFE0
:100CD0000FBECDBF09942A88398848885F846E8406
:100CE0007D848C849B84AA84B984C884DF80EE8050
:100CF000FD800C811B81AA81B981CE0FD11D0FB659
:100D0000F894DEBF0FBECDBFED010895F894FFCF7C
:100D1000AAA0A0A0AA25697C25697C25697C2569F3
:0C0D20007C25690A00520A004C0A000001
:00000001FF
