:100000000C9434000C9451000C9451000C94510049
:100010000C9451000C9451000C9451000C9451001C
:100020000C9451000C9451000C9451000C9451000C
:100030000C9451000C9451000C9451000C945100FC
:100040000C9451000C9451000C9476010C944A01CC
:100050000C9451000C9451000C9451000C945100DC
:100060000C9451000C94510011241FBECFEFD8E026
:10007000DEBFCDBF11E0A0E0B1E0EAE8FCE002C0E5
:1000800005900D92AC31B107D9F721E0ACE1B1E0B8
:1000900001C01D92A93CB207E1F70E946D030C94C8
:1000A00043060C9400001092C50087E68093C400BC
:1000B0001092C00088E98093C10086E08093C2005E
:1000C00008958823E1F090915C01FB019B012F5F73
:1000D0003F4F4FEF480F420F532F511D292F30E054
:1000E0009191D901A45EBE4F9C932F5F3F4F2F7318
:1000F0003327922FE417F50789F720935C0190913D
:10010000C20095FD05C09091C10090629093C1001E
:100110000895CF93582F882341F140919E01C0E468
:10012000C40F90919F01FB0180E00FC0292F30E0A8
:10013000D901A25ABE4F9C9191932F5F3F4F2F73CD
:100140003327922F8F5F581761F0242F291B4917EF
:1001500010F42C2F291B2111E9CF90939F01CF91EF
:10016000089520939F01CF91089580E0F8CF1F93C9
:10017000CF93DF93D82F882371F1C0919E0110E4B3
:100180001C0F90919F01FB0180E011C0292F30E0EE
:10019000D901A25ABE4F5C9151932F5F3F4F2F73ED
:1001A0003327922F8F5F541781F0D81771F02C2FBF
:1001B000291BC91710F4212F291B2111E7CF909378
:1001C0009F01DF91CF911F91089520939F01DF91AF
:1001D000CF911F91089580E0FACFCF93DF931F92C4
:1001E000CDB7DEB78983BE016F5F7F4F81E00E948C
:1001F00061000F90DF91CF910895FC0101900020E4
:10020000E9F73197BC012E2F281B822F0C94610037
:1002100080919E0190919F01891708F4805C891B51
:10022000089560919F0130919E0190E0482F880FC2
:10023000550B08C09F5FF0E0E25AFE4F2081241763
:10024000150631F0E62FE90FEF733E13F3CF90E080
:10025000892F0895CF93DF931F92CDB7DEB7198210
:10026000BE016F5F7F4F81E00E94890089810F90FE
:10027000DF91CF9108950C948900CF93DF93EB0128
:100280004AE00E94B700C80FD11D18828F5FDF912E
:10029000CF9108951F920F920FB60F9211242F93B2
:1002A0008F939F93EF93FF9380915D0190915C01F9
:1002B0009817B1F090E0FC01E45EFE4F208120939E
:1002C000C60001968F73992780935D01FF91EF918E
:1002D0009F918F912F910F900FBE0F901F901895A7
:1002E0008091C1008F7D8093C100F0CF1F920F924B
:1002F0000FB60F9211242F938F939F93AF93BF93B9
:10030000EF93FF93EEE9F1E0808190E02091C60049
:10031000DC01A25ABE4F2C9301968F7399278083DC
:10032000FF91EF91BF91AF919F918F912F910F907E
:100330000FBE0F901F901895EAE7F0E0808187606C
:100340008083ACE7B0E08C9180648C93808180687E
:1003500080838081806480838C9180628C930895F7
:1003600080917C00807F80937C0080917A00806403
:1003700080937A0080917A0086FDFCCF809179008D
:100380008093A50180917C008F5F80937C00809199
:100390007A00806480937A0080917A0086FDFCCF99
:1003A000809179008093A60180917C008F5F80937B
:1003B0007C0080917A00806480937A0080917A003A
:1003C00086FDFCCF809179008093A70180917C000D
:1003D0008F5F80937C0080917A00806480937A00A4
:1003E00080917A0086FDFCCF809179008093A801EE
:1003F00080917C008F5F80937C0080917A00806484
:1004000080937A0080917A0086FDFCCF80917900FC
:100410008093A9010895CF93DF9300D000D01F925D
:10042000CDB7DEB7E0EAF1E04083518362837383A6
:1004300084830F900F900F900F900F90DF91CF91CA
:1004400008950E94B00181E02091A5019091A00142
:10045000291708F480E02091A6019091A1012917A5
:10046000B8F092E0892B2091A7019091A201291761
:1004700008F084602091A8019091A301291708F049
:1004800088602091A9019091A401291718F408957A
:1004900090E0E8CF80610895FC0110A60895CF9305
:1004A000DF9300D000D01F92CDB7DEB70E94EE02DE
:1004B0000E949C0185E0E0E0F1E0DE0111960190F0
:1004C0000D928A95E1F749815A816B817C818D81FA
:1004D0000E940B020F900F900F900F900F90DF91E2
:1004E000CF910C9453000E9421029091AA01981779
:1004F00009F458C09093C4018093AA01917191317D
:1005000009F455C084FB992790F91F929F9383FBB0
:10051000992790F91F929F9382FB992790F91F9238
:100520009F9381FB992790F91F929F9381701F924F
:100530008F9385E091E09F938F938BEA91E09F9357
:100540008F930E9473038BEA91E00E94FD0020913B
:10055000C4018091AA01982F909592234DB75EB760
:10056000425F5F4F0FB6F8945EBF0FBE4DBF90FF66
:1005700003C0282B24FF0EC0982F917189F4982F67
:100580009E7071F083FD0FC081FF0AC082FF19C009
:100590000C943B03982F9E70B1F0982F917191F3BA
:1005A0000C941003089582FF0AC00C944503982F01
:1005B000917109F4A7CF81618093AA01A3CF0C9414
:1005C00031030C94270385E191E00E94FD000E9415
:1005D00061030E94210282FFFCCF08958AB1806FDF
:1005E0008AB984B5836A84BD85B5856085BD089563
:1005F0008091C70187BD8091C50188BD8091C801E8
:10060000882339F05F9A8091C601811107C05C98F8
:1006100008955F988091C6018823C9F35C9A089574
:10062000E7ECF1E084E680831182E5ECF1E0808381
:1006300011820C94F802E7ECF1E094E6908381E0FB
:100640008183E5ECF1E0908381830C94F802E5EC82
:10065000F1E084E6808311828EE18093C7010C94DF
:10066000F802E5ECF1E08EE18083118284E680936C
:10067000C7010C94F802E5ECF1E084E68083118276
:100680008AE58093C7010C94F802E5ECF1E08AE575
:100690008083118284E68093C7010C94F802109243
:1006A000C7011092C5010C94F802E7ECF1E084E672
:1006B00080831182E5ECF1E0808381E081830C94FA
:1006C000F802E7ECF1E084E6808391E09183E5ECC9
:1006D000F1E0808311820C94F8020E944F0278941A
:1006E0000E947302FDCFAEE0B0E0E9E7F3E00C94C6
:1006F0001A060D891E8986E08C831A8309838FEF81
:100700009FE79E838D83AE01475E5F4F6F89788D33
:10071000CE0101960E949503EF81F885E00FF11F4D
:1007200010822E96E4E00C943606ACE0B0E0EBE9E3
:10073000F3E00C940C066C017B018A01FC0117822A
:100740001682838181FFBEC1CE0101964C01F60164
:100750009381F70193FD859193FF81917F01882318
:1007600009F4ACC1853239F493FD859193FF8191F1
:100770007F01853229F4B60190E00E947E05E7CF23
:10078000512C312C20E02032A0F48B3269F030F46F
:10079000803259F0833269F420612CC08D3239F0F7
:1007A000803339F4216026C02260246023C0286091
:1007B00021C027FD27C030ED380F3A3078F426FFEE
:1007C00006C0FAE05F9E300D1124532E13C08AE05C
:1007D000389E300D1124332E20620CC08E3221F44D
:1007E00026FD6CC1206406C08C3611F4206802C05E
:1007F000883641F4F70193FD859193FF81917F0144
:100800008111C1CF982F9F7D9554933028F40C5FB0
:100810001F4F9FE399830DC0833631F0833771F00A
:10082000833509F05BC022C0F801808189830E5FA7
:100830001F4F44244394512C540115C03801F2E059
:100840006F0E711CF801A080B18026FF03C0652DDA
:1008500070E002C06FEF7FEFC5012C870E94730527
:100860002C0183012C852F77222E17C03801F2E04E
:100870006F0E711CF801A080B18026FF03C0652DAA
:1008800070E002C06FEF7FEFC5012C870E94680502
:100890002C012C852068222E830123FC1BC0832D74
:1008A00090E048165906B0F4B60180E290E00E944C
:1008B0007E053A94F4CFF50127FC859127FE8191BE
:1008C0005F01B60190E00E947E0531103A94F1E09C
:1008D0004F1A51084114510471F7E6C0843611F0E3
:1008E000893639F5F80127FF07C06081718182815F
:1008F00093810C5F1F4F08C060817181072E000C2F
:10090000880B990B0E5F1F4F2F76722E97FF09C031
:1009100090958095709561957F4F8F4F9F4F206880
:10092000722E2AE030E0A4010E94AE05A82EA8187D
:1009300044C0853729F42F7EB22E2AE030E025C04E
:10094000F22FF97FBF2E8F36C1F018F4883579F079
:10095000B5C0803719F0883721F0B0C02F2F206143
:10096000B22EB4FE0DC08B2D8460B82E09C024FFBA
:100970000AC09F2F9660B92E06C028E030E005C05F
:1009800020E130E002C020E132E0F801B7FE07C00C
:1009900060817181828193810C5F1F4F06C06081ED
:1009A000718180E090E00E5F1F4FA4010E94AE05B0
:1009B000A82EA818FB2DFF777F2E76FE0BC0372DB3
:1009C0003E7FA51450F474FE0AC072FC08C0372D97
:1009D0003E7E05C0BA2C372D03C0BA2C01C0B52C01
:1009E00034FF0DC0FE01EA0DF11D8081803311F44A
:1009F000397E09C032FF06C0B394B39404C0832F7C
:100A0000867809F0B39433FD13C030FF06C0B314E9
:100A100098F43A0C532C5B1810C0B31470F4B60160
:100A200080E290E03C870E947E05B3943C85F5CF40
:100A3000B31418F43B1802C05A2C312C34FF12C0E6
:100A4000B60180E390E03C870E947E053C8532FF42
:100A500017C031FD03C088E790E002C088E590E050
:100A6000B6010CC0832F867859F031FF02C08BE2AB
:100A700001C080E237FD8DE2B60190E00E947E0564
:100A8000A51438F4B60180E390E00E947E055A94E4
:100A9000F7CFAA94F401EA0DF11D8081B60190E030
:100AA0000E947E05A110F5CF332009F450CEB60187
:100AB00080E290E00E947E053A94F6CFF6018681AE
:100AC000978102C08FEF9FEF2C96E2E10C942806ED
:100AD000FC010590615070400110D8F78095909509
:100AE0008E0F9F1F0895FC0161507040019001100E
:100AF000D8F7809590958E0F9F1F08950F931F93A1
:100B0000CF93DF93182F092FEB018B8181FD03C059
:100B10008FEF9FEF1EC082FF0FC02E813F818C811F
:100B20009D812817390774F4E881F981CF01019676
:100B300099838883108306C0E885F985812F0995FC
:100B4000892B31F78E819F8101969F838E83812F20
:100B5000902FDF91CF911F910F910895FA01AA274D
:100B6000283051F1203181F1E8946F936E7F6E5FF0
:100B70007F4F8F4F9F4FAF4FB1E03ED0B4E03CD09E
:100B8000670F781F891F9A1FA11D680F791F8A1F81
:100B9000911DA11D6A0F711D811D911DA11D20D0E8
:100BA00009F468943F912AE0269F11243019305DA2
:100BB0003193DEF6CF010895462F4770405D419393
:100BC000B3E00FD0C9F7F6CF462F4F70405D4A33E0
:100BD00018F0495D31FD4052419302D0A9F7EACFA8
:100BE000B4E0A6959795879577956795BA95C9F7D7
:100BF00000976105710508959B01AC010A2E0694CA
:100C00005795479537952795BA95C9F7620F731F82
:100C1000841F951FA01D08952F923F924F925F92BF
:100C20006F927F928F929F92AF92BF92CF92DF92FC
:100C3000EF92FF920F931F93CF93DF93CDB7DEB761
:100C4000CA1BDB0B0FB6F894DEBF0FBECDBF0994F5
:100C50002A88398848885F846E847D848C849B844C
:100C6000AA84B984C884DF80EE80FD800C811B815A
:100C7000AA81B981CE0FD11D0FB6F894DEBF0FBE89
:0A0C8000CDBFED010895F894FFCFF9
:100C8A00646464647825697C25697C25697C2569A6
:0C0C9A007C25690A004C4546540A000005
:00000001FF
